:100000000C943A000C9457000C9457000C94570031
:100010000C9457000C9457000C9457000C94570004
:100020000C9457000C9457000C9457000C94BB018F
:100030000C9457000C9457000C9457000C945700E4
:100040000C9457000C9457000C9457000C945700D4
:100050000C9457000C9457000C9457000C945700C4
:100060000C9457000C9457006364696E6F7073753D
:1000700078585B0011241FBECFEFD8E0DEBFCDBFA4
:1000800012E0A0E0B1E0EEEBF0E102C005900D92CD
:10009000AE34B107D9F722E0AEE4B2E001C01D9260
:1000A000A835B207E1F70E9412020C945D080C9487
:1000B0000000209A0895289A0895289808950E948B
:1000C0005B002FE38DE093E0215080409040E1F70A
:1000D00000C000000E945D0087EA91E60197F1F7F9
:1000E00000C000000E945B0087EA91E60197F1F7EB
:1000F00000C000000E945D0087EA91E60197F1F7D9
:1001000000C000000E945B0087EA91E60197F1F7CA
:1001100000C000000E945D009FE32DE083E091504D
:1001200020408040E1F700C00000089595B181E0D3
:10013000892785B908951092C5008CE08093C4008A
:1001400088E18093C10086E08093C20080E091E066
:1001500090935502809354028EE091E09F938F9389
:100160000E944B020F900F900895E0ECF0E0908118
:1001700095FFFDCF8093C60008950E94B50080E0F2
:1001800090E00895CF93E0ECF0E080818823ECF7D5
:10019000C091C600CD3049F488E391E09F938F93DE
:1001A0000E944B020F900F9003C08C2F0E94B5004D
:1001B0008C2FCF910895EF92FF920F931F93CF93BF
:1001C000DF93CDB7DEB727970FB6F894DEBF0FBE2B
:1001D000CDBFFE01319685E0DF011D928A95E9F7DA
:1001E0000E94C20089838E010E5F1F4F7E01B6E020
:1001F000EB0EF11C08C00E94C200F80181938F0130
:10020000EE15FF0511F08D30B1F71F821E82CE0171
:1002100006969F938F9385E191E09F938F93CE01F4
:1002200001969F938F930E9461020F900F900F9001
:100230000F900F900F908E819F8127960FB6F894A4
:10024000DEBF0FBECDBFDF91CF911F910F91FF9009
:10025000EF90089584B5836084BDE0EBF0E0808189
:100260008360808385B5826085BDE1EBF0E08081AD
:100270008260808317BC18BC1092B3001092B40047
:10028000239A539A559A569A089584B5806884BDE6
:1002900084B5806284BDE0EBF0E08081806880837B
:1002A0008081806280830895CF93DF93C82FD62FFB
:1002B0003FEF389FC0011124E4E6F0E0BF010E9447
:1002C000230267BD3D9FC0011124BF010E9423028C
:1002D00068BD349FC0011124BF010E9423026093B6
:1002E000B300329FC0011124BF010E94230260931A
:1002F000B4001F922F931F924F931F92DF931F9270
:10030000CF9388E191E09F938F930E944B028DB72A
:100310009EB70A960FB6F8949EBF0FBE8DBFDF91B1
:10032000CF9108950E9445011092500210924F0201
:1003300010924E02109251020BE311E00E945B00FA
:100340001F930F930E944B020E94DB00C82F0E9454
:100350005D002C2F4C2F6C2F8C2F0E9454012FE905
:1003600086E891E0215080409040E1F700C0000015
:100370000F900F90E3CF1F920F920FB60F921124A0
:100380002F933F934F935F936F937F938F939F939D
:10039000AF93BF93EF93FF930E949600FF91EF916D
:1003A000BF91AF919F918F917F916F915F914F918D
:1003B0003F912F910F900FBE0F901F901895CF93E4
:1003C0001F921F9283EC8F9380E58F931F92C2E060
:1003D000CF931F9281E08F9385E591E09F938F9358
:1003E0000E944B02E9EBF0E080818D7F8083808169
:1003F0008E7F8083C093B80084E08093BC008DB76B
:100400009EB70A960FB6F8949EBF0FBE8DBFCF91D0
:1004100008950E9459000E942A010E949B000E9498
:10042000DF0108950E9409028AE991E09F938F936A
:100430000E944B020E945F000E9492010F900F9059
:1004400080E090E0089597FB072E16F4009407D003
:1004500077FD09D00E94370207FC05D03EF4909545
:1004600081959F4F0895709561957F4F0895AA1BC0
:10047000BB1B51E107C0AA1FBB1FA617B70710F08F
:10048000A61BB70B881F991F5A95A9F780959095C1
:10049000BC01CD010895A0E0B0E0E1E5F2E00C94EC
:1004A0003608AE014B5F5F4FFA0161917191AF0168
:1004B00080915402909155020E947A02E2E00C94DD
:1004C0005208AEE0B0E0E7E6F2E00C94360885E0D2
:1004D0008C838B899C899A838983AE01495E5F4FA7
:1004E0006D897E89CE0101960E94F7052E96E2E085
:1004F0000C945208ABE0B0E0E0E8F2E00C9426087F
:100500006C017B018A01FC0117821682838181FFC5
:10051000CCC1CE0101963C01F6019381F70193FD18
:10052000859193FF81917F01882309F4BAC18532B7
:1005300039F493FD859193FF81917F01853229F4F0
:10054000B60190E00E947007E7CF912C212C312C4E
:10055000FFE1F315D8F08B3279F038F4803279F07E
:100560008332A1F4232D20611DC08D3261F08033D0
:1005700069F4232D216016C0832D8260382EE32D6F
:10058000E4603E2E2AC0F32DF8601DC037FC2DC05C
:1005900020ED280F2A3040F08E32B9F436FC81C1AC
:1005A000232D2064322E19C036FE06C08AE0989EA4
:1005B000200D1124922E11C0EAE02E9E200D112450
:1005C000222EF32DF0623F2E08C08C3621F4832DAD
:1005D0008068382E02C0883641F4F70193FD85917A
:1005E00093FF81917F018111B3CF982F9F7D955407
:1005F000933028F40C5F1F4F9FE399830DC083361F
:1006000031F0833771F0833509F059C021C0F8010A
:10061000808189830E5F1F4F88248394912C53011E
:1006200013C02801F2E04F0E511CF801A080B180E8
:1006300036FE03C0692D70E002C06FEF7FEFC50189
:100640000E9427074C018201F32DFF773F2E16C031
:10065000280122E0420E511CF801A080B18036FE34
:1006600003C0692D70E002C06FEF7FEFC5010E94EB
:100670001C074C01F32DF0683F2E820133FC1BC098
:10068000822D90E088169906B0F4B60180E290E0E1
:100690000E9470072A94F4CFF50137FC859137FE4C
:1006A00081915F01B60190E00E94700721102A94A9
:1006B00021E0821A91088114910471F7E8C0843610
:1006C00011F0893641F5F80137FE07C0608171816C
:1006D000828193810C5F1F4F08C060817181072E5A
:1006E000000C880B990B0E5F1F4FF32DFF763F2EEA
:1006F00097FF09C090958095709561957F4F8F4FBA
:100700009F4FF0683F2E2AE030E0A3010E94C5070A
:10071000882E861845C0853731F4232D2F7EB22EC2
:100720002AE030E025C0932D997FB92E8F36C1F095
:1007300018F4883579F0B5C0803719F0883721F082
:10074000B0C0E92FE061BE2EB4FE0DC0FB2DF460F9
:10075000BF2E09C034FE0AC0292F2660B22E06C063
:1007600028E030E005C020E130E002C020E132E0C6
:10077000F801B7FE07C060817181828193810C5FAF
:100780001F4F06C06081718180E090E00E5F1F4FB7
:10079000A3010E94C507882E8618FB2DFF773F2EE8
:1007A00036FE0DC0232D2E7FA22E891458F434FE60
:1007B0000BC032FC09C0832D8E7EA82E05C0B82C3C
:1007C000A32C03C0B82C01C0B92CA4FE0FC0FE019D
:1007D000E80DF11D8081803321F49A2D997EA92E98
:1007E00009C0A2FE06C0B394B39404C08A2D8678D3
:1007F00009F0B394A3FC11C0A0FE06C0B21488F4A3
:10080000280C922C9B180EC0B21460F4B60180E242
:1008100090E00E947007B394F7CFB21418F42B182D
:1008200002C0982C212CA4FE10C0B60180E390E0F9
:100830000E947007A2FE17C0A1FC03C088E790E0E9
:1008400002C088E590E0B6010CC08A2D867859F088
:10085000A1FE02C08BE201C080E2A7FC8DE2B601DE
:1008600090E00E947007891438F4B60180E390E0AC
:100870000E9470079A94F7CF8A94F301E80DF11D56
:100880008081B60190E00E9470078110F5CF222090
:1008900009F442CEB60180E290E00E9470072A94EB
:1008A000F6CFF6018681978102C08FEF9FEF2B96DE
:1008B000E2E10C94420820FD09C0FC0123FD05C0C3
:1008C00022FF02C07383628351834083089544FDF5
:1008D00017C046FD17C0AB01BC01DA01FB01AA0F2E
:1008E000BB1FEE1FFF1F1094D1F74A0F5B1F6E1F37
:1008F0007F1FCB01BA01660F771F881F991F09C0A0
:1009000033E001C034E0660F771F881F991F315014
:10091000D1F7620F711D811D911D08950F931F93D3
:10092000CF93DF938C01C8010E943207EC0197FD41
:1009300008C00E940807892BB1F7B801CE010E94B8
:10094000AC07CE01DF91CF911F910F9108958F9247
:100950009F92AF92BF92EF92FF920F931F93CF930C
:10096000DF938C01D62F7A01B22E0E9432079C01B0
:1009700033272B32310531F02D32310561F48B2DC7
:100980008068B82ED15011F480E068C0C8010E9480
:10099000320797FDF9CFCB2DCD7F2B2D207309F595
:1009A0008033F9F4AA24AA94AD0E09F443C0C80117
:1009B0000E94320797FD3EC09C012F7D33272835CA
:1009C000310549F4C264D250A9F1C8010E9432072E
:1009D00097FF07C02FC0B6FE02C0C26001C0C2614F
:1009E000DA2D812C912C540120ED280F283080F035
:1009F000C4FF04C0B8010E94AC0719C02A3040F0FF
:100A0000C6FFF8CF2F7D3FEE320F363098F72750D4
:100A10004C2FC501B4010E9467044B015C01C26008
:100A2000D15059F0C8010E94320797FFDDCFC1FDB8
:100A300004C0AACF812C912C5401C7FF08C0B094E8
:100A4000A09490948094811C911CA11CB11C2C2F0B
:100A5000B501A401C7010E945B0481E0DF91CF9141
:100A60001F910F91FF90EF90BF90AF909F908F904C
:100A70000895A0E2B0E0EFE3F5E00C9429085C01F2
:100A8000962E7A01F9018E010F5F1F4F680180E2F7
:100A9000D8011D928A95E9F7D50113968C9080E0D4
:100AA00090E0612C712C30E061E070E083FC2591D6
:100AB00083FE21918F01522E211103C080E090E02E
:100AC00092C02E3511F4009751F1432F50E0481792
:100AD00059073CF42D3559F12D3219F4772009F1DD
:100AE00003C0772009F46AC0452D46954695469582
:100AF000D601A40FB11D452D47708B0102C0000F18
:100B0000111F4A95E2F7A8015C91452B4C9365149F
:100B100059F0561410F45394E7CF5A94E5CF31E0CE
:100B200004C07724739401C0712C0196BFCF772045
:100B300019F08E8180628E83311103C088248394E2
:100B400017C0F6019E012F5D3F4F808180958193F4
:100B50002E173F07D1F7F2CFE114F10429F0D701A6
:100B60008C93F70131967F019A94812C9920F9F0AA
:100B7000C5010E94320797FD18C0FC01FF2723E042
:100B8000F595E7952A95E1F7EC0DFD1D208130E004
:100B9000AC014770552702C0359527954A95E2F775
:100BA00020FDDACFB5010E94AC07811087CFE11498
:100BB000F10411F0D7011C92C80115C0422F4695CF
:100BC00046954695D601A40FB11D422F47708B0163
:100BD00002C0000F111F4A95E2F7A8015C91452B56
:100BE0004C93622EA2CFA096EFE00C944508A0E0B3
:100BF000B0E0EDEFF5E00C9429086C01EB015A012F
:100C0000FC0117821682512CF601E380FE01E3FC01
:100C10008591E3FE8191182FEF01882309F4EEC03E
:100C200090E00E940807892B21F0C6010E948E04E3
:100C3000EBCF153241F4FE01E3FC1591E3FE119177
:100C4000EF01153281F4C6010E94320797FDD4C02E
:100C5000412F50E09C01332724173507A9F2B60134
:100C60000E94AC07CBC01A3239F4E3FC1591E3FEC5
:100C70001191EF0101E001C000E0F12C20ED210F06
:100C80002A3080F402606F2D70E080E090E040E256
:100C90000E946704F62EFE01E3FC1591E3FE11911C
:100CA000EF01ECCF01FF03C0F11003C0A7C0FF2488
:100CB000FA94183619F01C3651F010C0FE01E3FC0E
:100CC0001591E3FE1191EF01183641F408600460BC
:100CD000FE01E3FC1591E3FE1191EF01112309F4EC
:100CE0008DC0612F70E088E690E00E941107892B8B
:100CF00009F484C000FD07C0F50180809180C50122
:100D000002965C0102C0812C912C1E3651F4F60132
:100D10004681578160E070E0202FC4010E945B048F
:100D200073CF1336A9F401FD02C0FF24F394C6016A
:100D30000E94320797FD60C08114910429F0F401EC
:100D40008083C40101964C01FA94F110F0CF50C099
:100D50001B3559F49E01A4016F2DC6010E9439056F
:100D6000EC01892B09F044C03EC0C6010E948E04EC
:100D700097FD42C01F3661F128F4143639F1193657
:100D800051F128C0133771F0153701F123C08114D8
:100D9000910429F0F4016082C40101964C01FA9497
:100DA000FF2071F0C6010E9432073C0197FD08C088
:100DB0000E940807892B59F3B601C3010E94AC07B2
:100DC00081149104A9F0F401108212C0006203C0E2
:100DD000006101C00064202FA4016F2DC6010E9494
:100DE000A704811105C0F6018381807329F406C030
:100DF00000FD0ACF539408CF552019F0852D90E0BF
:100E000002C08FEF9FEFCDB7DEB7EFE00C9445083F
:100E100091110C942308803219F089508550C8F73D
:100E20000895FC010590061621F00020D9F7C001B5
:100E300008953197CF010895FC01059061507040ED
:100E40000110D8F7809590958E0F9F1F0895FC0193
:100E50006150704001900110D8F7809590958E0FE9
:100E60009F1F0895CF93DF93EC012B8120FF33C0A8
:100E700026FF0AC02F7B2B838E819F8101969F8343
:100E80008E838A8190E029C022FF0FC0E881F9811A
:100E90008081082E000C990B009719F420622B8397
:100EA0001AC03196F983E8830EC0EA85FB8509955F
:100EB00097FF09C02B81019611F080E201C080E10B
:100EC000822B8B8308C02E813F812F5F3F4F3F8352
:100ED0002E83992702C08FEF9FEFDF91CF91089566
:100EE0000F931F93CF93DF93FB01238121FD03C059
:100EF0008FEF9FEF2CC022FF16C0468157812481BF
:100F000035814217530744F4A081B1819D012F5FC1
:100F10003F4F318320838C93268137812F5F3F4F52
:100F20003783268314C08B01EC01FB010084F1851B
:100F3000E02D0995892BE1F6D80116968D919C91AB
:100F40001797019617969C938E931697CE01DF9173
:100F5000CF911F910F910895FB01238120FF12C0B3
:100F600026FD10C08F3F3FEF930761F082832F7DF6
:100F700020642383268137812150310937832683DA
:100F8000992708958FEF9FEF0895FA01AA27283037
:100F900051F1203181F1E8946F936E7F6E5F7F4F46
:100FA0008F4F9F4FAF4FB1E03ED0B4E03CD0670FC2
:100FB000781F891F9A1FA11D680F791F8A1F911D15
:100FC000A11D6A0F711D811D911DA11D20D009F465
:100FD00068943F912AE0269F11243019305D3193A7
:100FE000DEF6CF010895462F4770405D4193B3E090
:100FF0000FD0C9F7F6CF462F4F70405D4A3318F037
:10100000495D31FD4052419302D0A9F7EACFB4E0E7
:10101000A6959795879577956795BA95C9F700979F
:101020006105710508959B01AC010A2E0694579540
:10103000479537952795BA95C9F7620F731F841F97
:10104000951FA01D08959927882708952F923F92F4
:101050004F925F926F927F928F929F92AF92BF92C8
:10106000CF92DF92EF92FF920F931F93CF93DF9374
:10107000CDB7DEB7CA1BDB0B0FB6F894DEBF0FBED1
:10108000CDBF09942A88398848885F846E847D841E
:101090008C849B84AA84B984C884DF80EE80FD8020
:1010A0000C811B81AA81B981CE0FD11D0FB6F89496
:0E10B000DEBF0FBECDBFED010895F894FFCF57
:1010BE000000000200000000BD00000000001B5BED
:1010CE00481B5B4A002564004D6F746F72735B2082
:1010DE00464C3D25640946523D256409424C3D254A
:1010EE00640942523D25645D0A0D00456E746572B9
:1010FE002064757479206379636C6520283C3130E7
:10110E0030293A200054574920706172616D657420
:10111E006572733A095072657363616C65723D2531
:10112E00752C20545742523D25752C2053434C5F4D
:10113E00667265713D25750A0D005B256C64092587
:10114E006C6409256C645D0A0D004A657373277320
:10115E002051756164636F707465720A0D004947A2
:10116E004E4F524520524F542825642909256409B3
:10117E002564092564096465672F730A0D004341D0
:10118E004C49425241544520524F54282564290956
:10119E002564092564092564096465672F730A0DA2
:1011AE000043414C4942524154452053554D282548
:1011BE006429092564092564092564096465672F76
:1011CE00730A0D0043414C494252415445204F464B
:1011DE004653455409256409256409256409646547
:1011EE00672F730A0D00524F5409256409256409AF
:0E11FE00256409646567726565730A0D00005B
:00000001FF
